{
  "contractName": "ToDo",
  "abi": [
    {
      "inputs": [],
      "payable": false,
      "stateMutability": "nonpayable",
      "type": "constructor"
    },
    {
      "anonymous": false,
      "inputs": [
        {
          "indexed": false,
          "name": "",
          "type": "uint256"
        },
        {
          "indexed": false,
          "name": "",
          "type": "uint256"
        },
        {
          "indexed": false,
          "name": "",
          "type": "string"
        },
        {
          "indexed": false,
          "name": "",
          "type": "string"
        },
        {
          "indexed": false,
          "name": "",
          "type": "bool"
        }
      ],
      "name": "TaskCreated",
      "type": "event"
    },
    {
      "constant": false,
      "inputs": [
        {
          "name": "_content",
          "type": "string"
        },
        {
          "name": "_author",
          "type": "string"
        }
      ],
      "name": "createTask",
      "outputs": [],
      "payable": false,
      "stateMutability": "nonpayable",
      "type": "function"
    },
    {
      "constant": true,
      "inputs": [
        {
          "name": "id",
          "type": "uint256"
        }
      ],
      "name": "getTask",
      "outputs": [
        {
          "name": "",
          "type": "uint256"
        },
        {
          "name": "",
          "type": "uint256"
        },
        {
          "name": "",
          "type": "string"
        },
        {
          "name": "",
          "type": "string"
        },
        {
          "name": "",
          "type": "bool"
        }
      ],
      "payable": false,
      "stateMutability": "view",
      "type": "function"
    },
    {
      "constant": true,
      "inputs": [],
      "name": "getTaskIds",
      "outputs": [
        {
          "name": "",
          "type": "uint256[]"
        }
      ],
      "payable": false,
      "stateMutability": "view",
      "type": "function"
    }
  ],
  "bytecode": "0x608060405234801561001057600080fd5b506000808190555061086d806100276000396000f300608060405260043610610057576000357c0100000000000000000000000000000000000000000000000000000000900463ffffffff1680631d65e77e1461005c578063292a45851461009d578063bcd14805146100c6575b600080fd5b34801561006857600080fd5b50610083600480360361007e91908101906105dc565b6100f1565b6040516100949594939291906106d6565b60405180910390f35b3480156100a957600080fd5b506100c460048036036100bf9190810190610570565b6102d2565b005b3480156100d257600080fd5b506100db610409565b6040516100e891906106b4565b60405180910390f35b60008060608060008560006002600083815260200190815260200160002060000154141561011e57600080fd5b866002600089815260200190815260200160002060010154600260008a8152602001908152602001600020600201600260008b8152602001908152602001600020600301600260008c815260200190815260200160002060040160009054906101000a900460ff16828054600181600116156101000203166002900480601f01602080910402602001604051908101604052809291908181526020018280546001816001161561010002031660029004801561021b5780601f106101f05761010080835404028352916020019161021b565b820191906000526020600020905b8154815290600101906020018083116101fe57829003601f168201915b50505050509250818054600181600116156101000203166002900480601f0160208091040260200160405190810160405280929190818152602001828054600181600116156101000203166002900480156102b75780601f1061028c576101008083540402835291602001916102b7565b820191906000526020600020905b81548152906001019060200180831161029a57829003601f168201915b50505050509150955095509550955095505091939590929450565b600080815480929190600101919050555060a060405190810160405280600054815260200142815260200183815260200182815260200160001515815250600260008054815260200190815260200160002060008201518160000155602082015181600101556040820151816002019080519060200190610354929190610461565b506060820151816003019080519060200190610371929190610461565b5060808201518160040160006101000a81548160ff021916908315150217905550905050600160005490806001815401808255809150509060018203906000526020600020016000909192909190915055507fb322bdd3250d405f7845d27fa1f0753f8f7e18e40886bc254b89005c3e9c032460005442848460006040516103fd9594939291906106d6565b60405180910390a15050565b6060600180548060200260200160405190810160405280929190818152602001828054801561045757602002820191906000526020600020905b815481526020019060010190808311610443575b5050505050905090565b828054600181600116156101000203166002900490600052602060002090601f016020900481019282601f106104a257805160ff19168380011785556104d0565b828001600101855582156104d0579182015b828111156104cf5782518255916020019190600101906104b4565b5b5090506104dd91906104e1565b5090565b61050391905b808211156104ff5760008160009055506001016104e7565b5090565b90565b600082601f830112151561051957600080fd5b813561052c61052782610764565b610737565b9150808252602083016020830185838301111561054857600080fd5b6105538382846107e0565b50505092915050565b600061056882356107d6565b905092915050565b6000806040838503121561058357600080fd5b600083013567ffffffffffffffff81111561059d57600080fd5b6105a985828601610506565b925050602083013567ffffffffffffffff8111156105c657600080fd5b6105d285828601610506565b9150509250929050565b6000602082840312156105ee57600080fd5b60006105fc8482850161055c565b91505092915050565b60006106108261079d565b80845260208401935061062283610790565b60005b82811015610654576106388683516106a5565b610641826107b3565b9150602086019550600181019050610625565b50849250505092915050565b610669816107c0565b82525050565b600061067a826107a8565b80845261068e8160208601602086016107ef565b61069781610822565b602085010191505092915050565b6106ae816107cc565b82525050565b600060208201905081810360008301526106ce8184610605565b905092915050565b600060a0820190506106eb60008301886106a5565b6106f860208301876106a5565b818103604083015261070a818661066f565b9050818103606083015261071e818561066f565b905061072d6080830184610660565b9695505050505050565b6000604051905081810181811067ffffffffffffffff8211171561075a57600080fd5b8060405250919050565b600067ffffffffffffffff82111561077b57600080fd5b601f19601f8301169050602081019050919050565b6000602082019050919050565b600081519050919050565b600081519050919050565b6000602082019050919050565b60008115159050919050565b6000819050919050565b6000819050919050565b82818337600083830152505050565b60005b8381101561080d5780820151818401526020810190506107f2565b8381111561081c576000848401525b50505050565b6000601f19601f83011690509190505600a265627a7a72305820203ba287259a7c2e296cb5c27892a97838fa767c18f1c2b69a20f7b0be27c9546c6578706572696d656e74616cf50037",
  "source": "pragma experimental ABIEncoderV2;\npragma solidity ^0.4.22;\n\ncontract ToDo {\n  struct Task {\n    uint id;\n    uint date;\n    string content;\n    string author;\n    bool done;\n  }\n\n  uint lastTaskId;\n  uint[] taskIds;\n  mapping(uint => Task) tasks;\n\n  event TaskCreated(uint, uint, string, string, bool);\n\n  constructor() public {\n    lastTaskId = 0;\n  }\n\n  function createTask(string _content, string _author) public {\n    lastTaskId++;\n    tasks[lastTaskId] = Task(lastTaskId, now, _content, _author, false);\n    taskIds.push(lastTaskId);\n    emit TaskCreated(lastTaskId, now, _content, _author, false);\n  }\n\n  function getTask(uint id) public view taskExists(id) \n    returns(\n      uint,\n      uint,\n      string,\n      string,\n      bool\n    ) {\n    \n    return(\n      id,\n      tasks[id].date,\n      tasks[id].content,\n      tasks[id].author,\n      tasks[id].done\n    );\n  }\n\n  function getTaskIds() public view returns(uint[]) {\n    return taskIds;\n  }\n\n  modifier taskExists(uint id) {\n    if (tasks[id].id == 0) {\n      revert();\n    }\n    _;\n  }\n}\n",
  "sourcePath": "/Users/mark.paul/Documents/Source/Projects/ToDo/contracts/ToDo.sol",
  "compiler": {
    "name": "solc",
    "version": "0.4.24+commit.e67f0147.Emscripten.clang"
  },
  "schemaVersion": "2.0.1",
  "updatedAt": "2018-10-15T05:46:39.846Z"
}